S01400004B4D5F383630305F763333302E73726563E0
S11300000C9454000C9466000C9466000C946600E6
S11300100C946B020C9450040C9466000C946600CF
S11300200C9466000C9473040C9483040C94930451
S11300300C9466000C9466000C9466000C94D91120
S11300400C94320B0C946E0B0C9466000C946600AA
S11300500C949D0B0C94140D0C944E0D0C94660092
S11300600C9466000C9466000C9466000C94660074
S11300700C9466000C9466000C946600230CE90C46
S1130080F20CF00BF90B010C090C110C313030306F
S113009030312000303230333330004B4D30312D8D
S11300A0383630302E4D300011241FBECFEFD8E04B
S11300B0DEBFCDBF26E0A0E0B1E001C01D92A133B8
S11300C0B207E1F70E94D9120C946E150C9400004B
S11300D012B811B880E185B988EB84B918B88FE3F8
S11300E087B981E88BB986E08AB90895E8E6F0E03B
S11300F0808183608083EBE6F0E080818FEF8083F2
S1130100ECE6F0E080818160808380917D059091B0
S11301107E0583709927892B11F183E08093B000C9
S113012080917E058370823041F0833051F08130BC
S113013061F485E08093B1000BC085E08093B10049
S113014007C083E08093B10003C087E08093B100CF
S113015087E0809370001092B3001092B40080E5A1
S11301608CBD81E08DBD08952C9880913E028EBD9A
S11301700DB407FEFDCF80913D028EBD0DB407FE88
S1130180FDCF2C9A08958FE090E0AFE0B0E0EDE36E
S1130190F2E061E070E020B130E0AD01481B590BA2
S11301A002C0359527954A95E2F720FD10C09B01C2
S11301B0082E02C0220F331F0A94E2F720953095CF
S11301C04081518124233523318320830DC0208134
S11301D03181AB01082E02C0440F551F0A94E2F787
S11301E0242B352B3183208301978730910599F691
S11301F0189908C0EDE3F2E08081918180649183D5
S11302008083DCC0EDE3F2E0808191818F7B918378
S11302108083D4C026B130E0082E02C035952795DE
S11302200A94E2F720FD10C09A01082E02C0220FA2
S1130230331F0A94E2F7209530956081718126235B
S11302403723318320830DC020813181BA01082EE8
S113025002C0660F771F0A94E2F7262B372B3183EF
S11302602083019686309105A9F680917D058370DF
S1130270823069F1833009F451C0813009F079C0CA
S11302808091490590914A05892B41F0EDE3F2E014
S11302908081918182609183808307C0EDE3F2E0E5
S11302A0808191818D7F91838083309908C0EDE3B3
S11302B0F2E0808191818E7F918380837CC0EDE325
S11302C0F2E08081918181609183808374C0809108
S11302D04B0590914C05892B41F0EDE3F2E08081D0
S11302E0918181609183808307C0EDE3F2E0808196
S11302F091818E7F91838083319908C0EDE3F2E090
S1130300808191818D7F9183808355C0EDE3F2E0FC
S1130310808191818260918380834DC08091490561
S113032090914A05892B41F0EDE3F2E080819181BF
S113033082609183808307C0EDE3F2E08081918144
S11303408D7F9183808380914B0590914C05892BFF
S113035041F0EDE3F2E080819181816091838083BB
S11303602AC0EDE3F2E0808191818E7F91838083C6
S113037022C0319908C0EDE3F2E0808191818D7F44
S11303809183808307C0EDE3F2E0808191818260F4
S113039091838083309908C0EDE3F2E080819181FC
S11303A08E7F9183808307C0EDE3F2E080819181A9
S11303B08160918380830E94B400089582E090E07C
S11303C0EDE3F2E041E050E025CF803168F4209184
S11303D0090230910A02A90102C0569547958A95EF
S11303E0E2F7CA01817008958FEF0895803168F4AF
S11303F020910B0230910C02A90102C05695479539
S11304008A95E2F7CA01817008958FEF08958031CB
S113041060F5623060F5662399F0E3E4F5E021E0ED
S113042030E0A90102C0440F551F8A95E2F7CA01C2
S113043020813181822B932B9183808381E00895E5
S1130440E3E4F5E021E030E0A90102C0440F551FC8
S11304508A95E2F7CA0180959095208131818223A3
S113046093239183808380E008958FEF08958FEF25
S1130470089580E090E0E9E0F2E041E050E020B14E
S113048030E0082E02C0359527950A94E2F720FD46
S113049010C09A01082E02C0220F331F0A94E2F7FB
S11304A02095309560817181262337233183208301
S11304B00DC020813181BA01082E02C0660F771F5A
S11304C00A94E2F7262B372B318320830196883058
S11304D09105A9F608951F920F920FB60F92112459
S11304E02F933F934F935F936F937F938F939F9338
S11304F0AF93BF93EF93FF9380E090E0E9E0F2E0E5
S113050041E050E020B130E0082E02C03595279537
S11305100A94E2F720FD10C09A01082E02C0220FAF
S1130520331F0A94E2F72095309560817181262368
S11305303723318320830DC020813181BA01082EF5
S113054002C0660F771F0A94E2F7262B372B3183FC
S11305502083019688309105A9F620917F0520FF1C
S113056030C080B13091080430FD24C080FF22C027
S1130570E9E0F4E080819181019691838083316088
S113058030930804409181055091820584179507A2
S113059088F010920A0410920904EBE0F4E08081E0
S11305A09181A281B3810196A11DB11D80839183A4
S11305B0A283B383009905C0E8E0F4E080818E7FD4
S11305C0808321FF30C080B13091080431FD24C004
S11305D081FF22C0EFE0F4E0808191810196918354
S11305E080833260309308044091870550918805D8
S11305F08417950788F01092100410920F04E1E11B
S1130600F4E080819181A281B3810196A11DB11D85
S113061080839183A283B383019905C0E8E0F4E069
S113062080818D7F808322FF30C080B130910804A7
S113063032FD24C082FF22C0E5E1F4E08081918193
S113064001969183808334603093080440918D0532
S113065050918E058417950788F010921604109215
S11306601504E7E1F4E080819181A281B3810196D0
S1130670A11DB11D80839183A283B383029905C018
S1130680E8E0F4E080818B7F808323FF30C080B179
S11306903091080433FD24C083FF22C0EBE1F4E071
S11306A0808191810196918380833860309308041E
S11306B040919305509194058417950788F0109202
S11306C01C0410921B04EDE1F4E080819181A2816D
S11306D0B3810196A11DB11D80839183A283B3834D
S11306E0039905C0E8E0F4E08081877F808324FFDC
S11306F030C080B13091080434FD24C084FF22C08E
S1130700E1E2F4E0808191810196918380833061FC
S1130710309308044091990550919A0584179507E0
S113072088F01092220410922104E3E2F4E0808124
S11307309181A281B3810196A11DB11D8083918312
S1130740A283B383049905C0E8E0F4E080818F7E3E
S1130750808325FF30C080B13091080435FD24C06A
S113076085FF22C0E7E2F4E08081918101969183C4
S1130770808330623093080440919F055091A00516
S11307808417950788F01092280410922704E9E250
S1130790F4E080819181A281B3810196A11DB11DF4
S11307A080839183A283B383059905C0E8E0F4E0D4
S11307B080818F7D808326FF30C080B13091080412
S11307C036FD24C086FF22C0EDE2F4E080819181F1
S11307D00196918380833064309308044091A50589
S11307E05091A6058417950788F010922E04109254
S11307F02D04EFE2F4E080819181A281B38101961E
S1130800A11DB11D80839183A283B383069905C082
S1130810E8E0F4E080818F7B808327FF30C080B1E3
S113082020910804222324F1882314F5E3E3F4E05F
S113083080819181019691838083206820930804AC
S11308402091AB053091AC058217930788F0109284
S1130850340410923304E5E3F4E080819181A281B1
S1130860B3810196A11DB11D80839183A283B383BB
S1130870079905C0E8E0F4E080818F778083FF91D9
S1130880EF91BF91AF919F918F917F916F915F9104
S11308904F913F912F910F900FBE0F901F9018957D
S11308A01F920F920FB60F9211248F939F93EF9381
S11308B0FF93189908C0E9E0F2E08081918191608A
S11308C09183808307C0E9E0F2E0808191819E7F7B
S11308D091838083FF91EF919F918F910F900FBE31
S11308E00F901F9018951F920F920FB60F9211241C
S11308F08F9380917D0580FD419A8F910F900FBE5B
S11309000F901F9018951F920F920FB60F921124FB
S11309108F9380917D0581FD409A8F910F900FBE3A
S11309200F901F9018951F920F920FB60F921124DB
S11309308F9380917D0580FD419880917D0581FD97
S113094040988F910F900FBE0F901F90189580E0E4
S113095090E0A5E0B0E0EBE0F2E061E070E026B109
S113096030E0AD01481B590B02C0359527954A95D7
S1130970E2F720FD10C09B01082E02C0220F331F96
S11309800A94E2F720953095408151812423352340
S1130990318320830DC020813181AB01082E02C038
S11309A0440F551F0A94E2F7242B352B31832083FF
S11309B001968430910599F620917D0520FF16C09B
S11309C08091490590914A05892B41F0EBE0F2E0D2
S11309D08081918180619183808319C0EBE0F2E092
S11309E0808191818F7E9183808311C0319908C069
S11309F0EBE0F2E0808191818F7E9183808307C058
S1130A00EBE0F2E08081918180619183808321FF1A
S1130A1016C080914B0590914C05892B41F0EBE079
S1130A20F2E0808191818062918380830895EBE07C
S1130A30F2E0808191818F7D918380830895309944
S1130A4008C0EBE0F2E0808191818F7D9183808307
S1130A500895EBE0F2E0808191818062918380834C
S1130A60089585E090E0A5E0B0E021E030E0E3E423
S1130A70F5E0AD01481B590BB90102C0660F771FA1
S1130A804A95E2F7AB016081718146235723452BD8
S1130A9061F468B1A901082E02C0440F551F0A94DD
S1130AA0E2F74095462348B90AC068B1A901082E67
S1130AB002C0440F551F0A94E2F7462B48B9019728
S1130AC081309105B1F680917D0583708230A1F06B
S1130AD0833011F1813049F5809149058093B30049
S1130AE080914B058093B4008091430585FD02C03D
S1130AF0409829C0409A27C0809149058093B3004B
S1130B0080914B058093B4008091430584FD02C01D
S1130B10419819C0419A17C0809149058093B30048
S1130B2080914B058093B4000EC08091430584FDF1
S1130B3002C0419801C0419A8091430585FD02C0DD
S1130B40409801C0409A20917D0520FF09C0809102
S1130B50490590914A0590931A028093190204C0A2
S1130B6010921A021092190221FF09C080914B05BC
S1130B7090914C0590931C0280931B02089510924F
S1130B801C0210921B0208951092080410920A0489
S1130B901092090410920B0410920C0410920D048C
S1130BA010920E041092100410920F04109211046B
S1130BB0109212041092130410921404109216044A
S1130BC0109215041092170410921804109219042C
S1130BD010921A0410921C0410921B0410921D040B
S1130BE010921E0410921F041092200410922204EA
S1130BF010922104109223041092240410922504CC
S1130C0010922604109228041092270410922904AA
S1130C1010922A0410922B0410922C0410922E0489
S1130C2010922D0410922F0410923004109231046B
S1130C30109232041092340410923304109235044A
S1130C4010923604109237041092380408952091BB
S1130C5093053091940580910B0490910C04A0911C
S1130C600D04B0910E04820F931FA11DB11D40917C
S1130C7091055091920560E070E0BA015527442730
S1130C80840F951FA61FB71FB0931E02A0931D02C9
S1130C909093200280931F0220919705309198052C
S1130CA08091110490911204A0911304B091140442
S1130CB0820F931FA11DB11D40919505509196057A
S1130CC060E070E0BA0155274427840F951FA61FE2
S1130CD0B71FB0932202A093210290932402809321
S1130CE0230220919B0530919C05809117049091DB
S1130CF01804A0911904B0911A04820F931FA11D26
S1130D00B11D4091990550919A0560E070E0BA01D7
S1130D1055274427840F951FA61FB71FB09326029B
S1130D20A0932502909328028093270220919F0587
S1130D303091A00580911D0490911E04A0911F0480
S1130D40B0912004820F931FA11DB11D40919D05F8
S1130D5050919E0560E070E0BA0155274427840F46
S1130D60951FA61FB71FB0932A02A0932902909340
S1130D702C0280932B022091A3053091A40580912D
S1130D80230490912404A0912504B0912604820F99
S1130D90931FA11DB11D4091A1055091A20560E0D2
S1130DA070E0BA0155274427840F951FA61FB71F6B
S1130DB0B0932E02A0932D029093300280932F02C1
S1130DC02091A7053091A8058091290490912A04C7
S1130DD0A0912B04B0912C04820F931FA11DB11D6F
S1130DE04091A5055091A60560E070E0BA01552731
S1130DF04427840F951FA61FB71FB0933202A093F8
S1130E00310290933402809333022091AB053091E8
S1130E10AC0580912F0490913004A0913104B091DD
S1130E203204820F931FA11DB11D4091A905509159
S1130E30AA0560E070E0BA0155274427840F951F86
S1130E40A61FB71FB0933602A093350290933802C1
S1130E50809337022091AF053091B005809135041D
S1130E6090913604A0913704B0913804820F931FF7
S1130E70A11DB11D4091AD055091AE0560E070E03B
S1130E80BA0155274427840F951FA61FB71FB09397
S1130E903A02A093390290933C0280933B02089556
S1130EA0CF93DF93CDB7DEB7AE970FB6F894DEBF1E
S1130EB00FBECDBFF99B02C0F999FECFA8954EE2B3
S1130EC050E060E070E0CE0101960E943315A895D1
S1130ED0F99B02C0F999FECFA8954EE250E06EE26C
S1130EE070E0CE0101960E945115AE960FB6F894AB
S1130EF0DEBF0FBECDBFDF91CF9108958BE990E0A7
S1130F00AFE3B2E027EA30E0FC0144913196E4918A
S1130F10F0E0F42BED93FD93029682179307A1F76B
S1130F20089584E990E0AFE4B2E02AE930E0FC01FE
S1130F3044913196E491F0E0F42BED93FD93029605
S1130F4082179307A1F708958CE890E0A5E5B2E035
S1130F5022E930E0FC0144913196E491F0E0F42B75
S1130F60ED93FD93029682179307A1F70895F99BD9
S1130F7002C0F999FECFA8958EE290E00E94431535
S1130F8090E09093B4058093B3050895CF93DF93D5
S1130F90F99B02C0F999FECFA89580E390E00E94E6
S1130FA04315C82FD0E0DC2FCC27D093B605C093CF
S1130FB0B505A8958FE290E00E944315C82BD09305
S1130FC0B605C093B505DF91CF910895CF93DF9314
S1130FD0F99B02C0F999FECFA89582E390E00E94A4
S1130FE04315C82FD0E0DC2FCC27D0937E05C093C7
S1130FF07D05A89581E390E00E944315C82BD0930A
S11310007E05C0937D05DF91CF910895F99B02C0C1
S1131010F999FECFA89583E390E00E94431590E0F0
S11310209093800580937F050895F99B02C0F999F8
S1131030FECFA89584E390E00E94431590E090933E
S11310408205809381050895F99B02C0F999FECF2A
S1131050A8958EE390E00E944B159093940580939D
S113106093050895F99B02C0F999FECFA8958CE3E6
S113107090E00E944B1590939205809391050895FA
S1131080F99B02C0F999FECFA89585E390E00E94F0
S1131090431590E090938405809383050895F99B0C
S11310A002C0F999FECFA89582E490E00E944B1506
S11310B090939805809397050895F99B02C0F99938
S11310C0FECFA89580E490E00E944B15909396057E
S11310D0809395050895F99B02C0F999FECFA895D0
S11310E086E390E00E94431590E0909386058093F8
S11310F085050895F99B02C0F999FECFA89586E469
S113110090E00E944B1590939C0580939B05089555
S1131110F99B02C0F999FECFA89584E490E00E945F
S11311204B1590939A05809399050895F99B02C0F5
S1131130F999FECFA89587E390E00E94431590E0CB
S113114090938805809387050895F99B02C0F999C7
S1131150FECFA8958AE490E00E944B159093A005D9
S113116080939F050895F99B02C0F999FECFA89535
S113117088E490E00E944B1590939E0580939D0512
S11311800895F99B02C0F999FECFA89588E390E0F1
S11311900E94431590E090938A05809389050895F1
S11311A0F99B02C0F999FECFA8958EE490E00E94C5
S11311B04B159093A4058093A3050895F99B02C051
S11311C0F999FECFA8958CE490E00E944B1590937A
S11311D0A2058093A1050895F99B02C0F999FECF59
S11311E0A89589E390E00E94431590E090938C05C4
S11311F080938B050895F99B02C0F999FECFA895B9
S113120082E590E00E944B159093A8058093A70572
S11312100895F99B02C0F999FECFA89580E590E066
S11312200E944B159093A6058093A5050895F99BFC
S113123002C0F999FECFA8958AE390E00E94431575
S113124090E090938E0580938D050895F99B02C0DC
S1131250F999FECFA89586E590E00E944B159093EE
S1131260AC058093AB050895F99B02C0F999FECFB4
S1131270A89584E590E00E944B159093AA0580936D
S1131280A9050895F99B02C0F999FECFA8958BE3AF
S113129090E00E94431590E09093900580938F0511
S11312A00895F99B02C0F999FECFA8958AE590E0CC
S11312B00E944B159093B0058093AF050895F99B58
S11312C002C0F999FECFA89588E590E00E944B15DD
S11312D09093AE058093AD0508956091B305F99B95
S11312E002C0F999FECFA8958EE290E00E945B15AA
S11312F008956091B505F99B02C0F999FECFA895B0
S11313008FE290E00E945B15A895F99B02C0F999C1
S1131310FECFA8956091B605F99B02C0F999FECF5E
S1131320A89580E390E00E945B15089560917D0587
S1131330F99B02C0F999FECFA89581E390E00E9441
S11313405B15A895F99B02C0F999FECFA895609109
S11313507E05F99B02C0F999FECFA89582E390E03F
S11313600E945B150895F99B02C0F999FECFA895D8
S113137060917F0583E390E00E945B150895F99BDB
S113138002C0F999FECFA8956091810584E390E0AD
S11313900E945B150895F99B02C0F999FECFA895A8
S11313A060919305709194058EE390E00E94691515
S11313B00895F99B02C0F999FECFA8956091910513
S11313C0709192058CE390E00E9469150895F99B51
S11313D002C0F999FECFA8956091830585E390E05A
S11313E00E945B150895F99B02C0F999FECFA89558
S11313F0609197057091980582E490E00E946915C8
S11314000895F99B02C0F999FECFA89560919505BE
S11314107091960580E490E00E9469150895F99B07
S113142002C0F999FECFA8956091850586E390E006
S11314300E945B150895F99B02C0F999FECFA89507
S113144060919B0570919C0586E490E00E9469156B
S11314500895F99B02C0F999FECFA895609199056A
S113146070919A0584E490E00E9469150895F99BAF
S113147002C0F999FECFA8956091870587E390E0B3
S11314800E945B150895F99B02C0F999FECFA895B7
S113149060919F057091A0058AE490E00E9469150F
S11314A00895F99B02C0F999FECFA89560919D0516
S11314B070919E0588E490E00E9469150895F99B57
S11314C002C0F999FECFA8956091890588E390E060
S11314D00E945B150895F99B02C0F999FECFA89567
S11314E06091A3057091A4058EE490E00E946915B3
S11314F00895F99B02C0F999FECFA8956091A105C2
S11315007091A2058CE490E00E9469150895F99BFE
S113151002C0F999FECFA89560918B0589E390E00C
S11315200E945B150895F99B02C0F999FECFA89516
S11315306091A7057091A80582E590E00E94691565
S11315400895F99B02C0F999FECFA8956091A5056D
S11315507091A60580E590E00E9469150895F99BB5
S113156002C0F999FECFA8956091AB057091AC05C6
S113157086E590E00E9469150895F99B02C0F999E7
S1131580FECFA8956091A9057091AA0584E590E025
S11315900E9469150895F99B02C0F999FECFA89598
S11315A060918F058BE390E00E945B150895F99B91
S11315B002C0F999FECFA8956091AF057091B0056E
S11315C08AE590E00E9469150895F99B02C0F99993
S11315D0FECFA8956091AD057091AE0588E590E0C9
S11315E00E94691508950E947E070E9491070E9437
S11315F0A4070E94B7070E94C6070E94E6070E943C
S113160006080E9415080E9440080E946B080E9468
S113161096080E94C1080E94EC080E9417090E94C3
S113162042090E9432080E9424080E945D080E9418
S11316304F080E9488080E947A080E94B3080E94FA
S1131640A5080E94DE080E94D0080E9409090E9491
S1131650FB080E9434090E9426090E945F090E9427
S1131660510908951F920F920FB60F9211242F93D0
S11316703F934F938F939F93AF93BF93EF93FF93B6
S113168010920603209100013091010112161306F5
S113169064F4AAE3B4E0E5E0F1E080E090E04D9189
S11316A04193019682179307D4F320930602109274
S11316B001011092000114BC15BC81E08093FF026B
S11316C0FF91EF91BF91AF919F918F914F913F9176
S11316D02F910F900FBE0F901F9018951F920F928D
S11316E00FB60F9211248F9381E0809306038F919C
S11316F00F900FBE0F901F901895382F6623D1F0CE
S1131700E82FF92F8FEF9FEF48E021918227242FB4
S113171080FD03C09695879506C09695879551E000
S1131720852750EA9527215099F72E2F231B26173A
S113173060F308958FEF9FEF08951F920F920FB6F5
S11317400F9211248F939F93EF93FF938091C00086
S1131750887119F08091C60026C09091C6008091CE
S11317600603811120C0E0910001F0910101E65CC3
S1131770FB4F908385B3866085BB16BC82E084BD35
S113178084E085BD809100019091010101968E3F16
S113179091052CF4909301018093000104C01092F0
S11317A0010110920001FF91EF919F918F910F9091
S11317B00FBE0F901F9018958F929F92AF92BF9279
S11317C0CF92DF92EF92FF92CF93C62F90E0FC016D
S11317D03397E830F10570F5E25CFF4F0C942D155A
S11317E00F2EF0E8CF2EF5E2DF2EE12CF12CF02DB8
S11317F032C00F2EC12CFBE4DF2EE12CF12CF02D96
S11318002AC00F2EC12CF6E9DF2EE12CF12CF02D8D
S113181022C00F2EC12CF1EEDF2EE12CF12CF02D85
S11318201AC00F2EC12CF2ECDF2EEE24E394F12C1F
S1131830F02D11C00F2EF0E8CF2EF5E2DF2EE12CB3
S1131840F12CF02D08C00F2EF0EBCF2EF4E0DF2E9C
S1131850E12CF12CF02DC701B6010E9416149B0156
S1131860AC0160E070E081E69BE40E94801320E01C
S113187030E040E85DE30E94A61420E030E040E060
S11318805FE30E941B134B015C0120E030E040E069
S11318905FE30E94A21488230CF499C0C501B4012B
S11318A00E94E813872E982EA92EBB248092C5008F
S11318B06093C400C23041F0C33051F0C13061F4D0
S11318C08EEA8093C2000BC086E88093C20007C0F2
S11318D08EE88093C20003C086EA8093C20088ED3C
S11318E08093C100E6ECF0E080818081808180817A
S11318F05998519A589A50985A98529AEAE3F4E0AF
S113190089E395E01192E817F907E1F7E5E0F1E0E2
S113191084E092E01192E817F907E1F7E7E0F3E0D9
S113192086E094E01192E817F907E1F710920101BB
S1131930109200011092FF0281E080930003C11411
S11319408BE4D806E104F1043CF00F2EC12CFBE437
S1131950DF2EE12CF12CF02DC701B6010E941614E4
S11319606B017C019B01AC0160E078E186EF9DE4B2
S11319700E94801320E030E040E85BE30E94A6145C
S113198020E030E040E05FE30E941C130E94E81373
S113199067BDA701960160E070EF82E59DE40E94B7
S11319A0801320E030E040E85BE30E94A61420E0CE
S11319B030E040E05FE30E941C130E94E81368BD1E
S11319C0EEE6F0E080818660808380E014C08FEFD3
S11319D012C00F2EF0E6CF2EF9E0DF2EE12CF12C11
S11319E0F02D39CF0F2EF0ECCF2EF2E1DF2EE12CCB
S11319F0F12CF02D30CFCF91FF90EF90DF90CF906E
S1131A00BF90AF909F908F90089580933904109267
S1131A1003011092020110920003E1ECF0E08081D6
S1131A20806280835A9A08951F920F920FB60F9284
S1131A3011242F933F938F939F93EF93FF932091C0
S1131A40390430E08091020190910301281739078D
S1131A50A9F0A895599AE0910201F0910301E95F78
S1131A60FC4F80818093C600809102019091030114
S1131A700196909303018093020105C0E1ECF0E02C
S1131A8080818F7D8083FF91EF919F918F913F9112
S1131A902F910F900FBE0F901F9018951F920F92C9
S1131AA00FB60F9211248F935A9881E0809300030C
S1131AB08F910F900FBE0F901F901895CF93809128
S1131AC0FF02882349F11092FF0290913A04809119
S1131AD00503981323C0C0910602C63008F16EEFC7
S1131AE06C0F8AE394E00E947D0B2C2F30E0692F69
S1131AF07727F901E75CFB4F408150E064177507D5
S1131B0089F49927F901E85CFB4F208130E08217C2
S1131B10930751F08FEF09C080E007C08DEF05C037
S1131B208EEF03C08FEF01C081E0CF910895AF9293
S1131B30BF92CF92DF92EF92FF920F931F93CF93B6
S1131B40DF93A895D090060480910203909103033B
S1131B50CD2CC80E9C01992314F4295F3F4F359571
S1131B6027953595279535952795B22E87709078CA
S1131B70992324F40197886F9F6F0196181619060C
S1131B801CF4BB24B394B20EA090010321E0A21272
S1131B9028C080E18C1528F0DC1438F000E010E057
S1131BA047C082E08093040268C0C0E0D0E000E057
S1131BB010E0EE24E394F12C8C2F8D0D0E94F6019D
S1131BC0882349F0C7010C2E02C0880F991F0A947C
S1131BD0E2F7082B192B21968C2F8D0D8C1560F3B1
S1131BE027C080E18C1528F0DC1438F000E010E008
S1131BF01FC082E08093040240C0C0E0D0E000E057
S1131C0010E0EE24E394F12C8C2F8D0D0E94E5015D
S1131C10882349F0C7010C2E02C0880F991F0A942B
S1131C20E2F7082B192B21968C2F8D0D8C1560F360
S1131C308091050380930703A0920803B0920903DF
S1131C4000930A0382E0B81204C010930B03C5E0AA
S1131C5001C0C4E06C2F87E093E00E947D0BEC2F61
S1131C60F0E0E95FFC4F8083E1E0EC0FF0E0E95F36
S1131C70FC4F9083CE5FC0933904DF91CF911F91C5
S1131C800F91FF90EF90DF90CF90BF90AF900895A9
S1131C90CF93A89580910604609102037091030389
S1131CA0982F960F20910503209307034091010379
S1131CB0409308039B01220F331F209309034330F1
S1131CC031F59D3720F4891730F0C3E045C082E038
S1131CD08093040254C023E0E82FF0E0EE0FFF1FCE
S1131CE0E75CFA4F30814181E22FF0E0E95FFC4F7D
S1131CF04083E1E0E20FF0E02E5FE95FFC4F3083C8
S1131D008F5F8913E9CF660FC3E0C60F25C09D37E7
S1131D1020F4891730F0C3E01FC082E080930402EE
S1131D202EC023E0E82FF0E0EE0FFF1FE95FFD4F28
S1131D3030814181E22FF0E0E95FFC4F4083E1E034
S1131D40E20FF0E02E5FE95FFC4F30838F5F891371
S1131D50E9CF660FC3E0C60F6C2F87E093E00E94C3
S1131D607D0BEC2FF0E0E95FFC4F8083E1E0EC0FAA
S1131D70F0E0E95FFC4F9083CE5FC0933904CF91CC
S1131D800895A8958091060490910203980F9131CB
S1131D9020F082E0809304020895909109019F3F0E
S1131DA041F490910A0191110EC061E00E94070272
S1131DB00EC0911108C090910A01911104C060E015
S1131DC00E94070204C083E0809304020895809176
S1131DD00503809307038091010380930803809196
S1131DE00701809309038091080180930A0380917D
S1131DF0090180930B0380910A0180930C0366E030
S1131E0087E093E00E947D0B80930D0390930E0373
S1131E1088E0809339040895A895809106049091F0
S1131E2007048D37910524F082E08093040208951D
S1131E30FC01EE0FFF1FE75CFA4F2091090130E02F
S1131E40322F222740910A01242B318320838232AE
S1131E50910519F40E9496099AC08332910519F4E8
S1131E600E94B30994C08432910519F40E94BF09F9
S1131E708EC08532910519F40E94E70988C0863224
S1131E80910519F40E940F0A82C08732910519F452
S1131E900E94370A7CC08832910519F40E945F0AB7
S1131EA076C08A32910519F40E94870A70C08B3279
S1131EB0910519F40E94CB0A6AC08C32910519F479
S1131EC00E94D90964C08D32910519F40E94CB098E
S1131ED05EC08E32910519F40E94010A58C08F32F7
S1131EE0910519F40E94F30952C08033910519F445
S1131EF00E94290A4CC08133910519F40E941B0ADF
S1131F0046C08233910519F40E94510A40C08333BC
S1131F10910519F40E94430A3AC08433910519F4D7
S1131F200E94790A34C08533910519F40E946B0A22
S1131F302EC08633910519F40E94A10A28C0873364
S1131F40910519F40E94930A22C08833910519F46B
S1131F500E94BD0A1CC08933910519F40E94AF0A7E
S1131F6016C08A33910519F40E94E50A10C08B3318
S1131F70910519F40E94D70A0AC08D33910519F40A
S1131F800E946D0904C0CE9711F40E9479098091D2
S1131F9005038093070380910103809308038091D4
S1131FA00701809309038091080180930A038091BB
S1131FB0090180930B0380910A0180930C0366E06E
S1131FC087E093E00E947D0B80930D0390930E03B2
S1131FD088E0809339040895EF92FF920F931F9342
S1131FE0CF93DF93A895F0900604E0900203EF0CE2
S1131FF080E18E1520F482E08093040256C0809123
S11320000B01823049F400910D0110E0102F0027DC
S113201080910C01082B0AC0813021F400910C013D
S113202010E004C082E0809304023FC0FE14C8F4B0
S1132030C0E0D0E08C2F8F0D98010C2E02C0369595
S113204027950A94E2F720FF04C061E00E9407028A
S113205003C060E00E94070221968C2F8F0D8E151D
S113206048F38091050380930703809101038093D3
S113207008038091070180930903809108018093EC
S11320800A038091090180930B0380910A018093D4
S11320900C0366E087E093E00E947D0B80930D03C0
S11320A090930E0388E080933904DF91CF911F91C0
S11320B00F91FF90EF9008951F93CF93DF93A8950E
S11320C0C0910604109102031C0F1D3718F4C117A8
S11320D028F0A4C082E080930402C4C0D0E0ED2FB5
S11320E0F0E0EE0FFF1FAC2FB0E0AA0FBB1FA75C00
S11320F0BA4FEB5FFE4F878190E0982F88272085A9
S1132100822B8D939C93C23219F40E94960981C04C
S1132110C33219F40E94B3097CC0C43219F40E947A
S1132120BF0977C0C53219F40E94E70972C0C632EC
S113213019F40E940F0A6DC0C73219F40E94370ABD
S113214068C0C83219F40E945F0A63C0CA3219F425
S11321500E94870A5EC0CB3219F40E94CB0A59C090
S1132160CC3219F40E94D90954C0CD3219F40E941A
S1132170CB094FC0CE3219F40E94010A4AC0CF32B3
S113218019F40E94F30945C0C03319F40E94290AC6
S113219040C0C13319F40E941B0A3BC0C23319F476
S11321A00E94510A36C0C33319F40E94430A31C055
S11321B0C43319F40E94790A2CC0C53319F40E945F
S11321C06B0A27C0C63319F40E94A10A22C0C73380
S11321D019F40E94930A1DC0C83319F40E94BD0A61
S11321E018C0C93319F40E94AF0A13C0CA3319F4D2
S11321F00E94E50A0EC0CB3319F40E94D70A09C025
S1132200CD3319F40E946D0904C0CE3311F40E9439
S11322107909DF5FCF5FC11708F461CF80910503AF
S11322208093070380910103809308038091070141
S1132230809309038091080180930A038091090126
S113224080930B0380910A0180930C0366E087E07E
S113225093E00E947D0B80930D0390930E0388E01E
S113226080933904DF91CF911F910895A89590919F
S113227005018091050398138CC0109204022091EB
S11322800601209301038091070190E0982F88278D
S113229030910801832B9093070480930604809166
S11322A0090190E0982F882730910A01832B90939D
S11322B0030380930203109239048BEF820F823060
S11322C038F481E090E090930303809302030AC002
S11322D08091020390910303892B21F483E080937E
S11322E0040254C0213019F40E94970D27C02230F3
S11322F019F40E94970D22C0233019F40E94480E4D
S11323001DC0243019F40E94480E18C0253019F459
S11323100E94C10E13C0263019F40E940C0F0EC087
S11323202F3019F40E94EC0F09C0203119F40E94D7
S11323305C1004C081E08093040228C080910402F0
S1132340811108C080913904882319F190E00E941A
S1132350050D08959091050390930703909101034F
S11323609068909308038093090363E087E093E007
S11323700E947D0B80930A0390930B0385E0809366
S1132380390485E090E00E94050D089580910402CF
S1132390E1CF089580910401882319F0815080933E
S11323A0040180910403882319F08150809304036D
S11323B008951F920F920FB60F9211242F933F93FB
S11323C04F935F936F937F938F939F93AF93BF9339
S11323D0EF93FF938FEF809385008FE680938400C3
S11323E00E94CA11FF91EF91BF91AF919F918F917C
S11323F07F916F915F914F913F912F910F900FBEFD
S11324000F901F9018952FEF3FE786E12150304041
S11324108040E1F700C000000E9468002B9AA89554
S11324209FEF2FE736E1915020403040E1F700C0A4
S11324300000E7E0F2E08FEF92E011921192E817CA
S1132440F907D9F7E9E3F5E081E396E011921192F7
S1132450E817F907D9F78FEF9FE724E08150904000
S11324602040E1F700C00000A8954F9919C00E94D0
S1132470500785E02B983FEF9FE724E031509040D0
S11324802040E1F700C000002B9A3FEF9FE724E0D3
S1132490315090402040E1F700C00000815051F7D6
S11324A0A8950E94F30A0E94C405A8950E9476008C
S11324B02B9810923E0210923D020E94B400A895FF
S11324C03FEF8FEF9CE2315080409040E1F700C035
S11324D0000080E09FEF90933E0280933D020E94B3
S11324E0B400A8952FEF3FE786E1215030408040AB
S11324F0E1F700C000008FE390E090933E028093E8
S11325003D020E94B400A8959FEF2FE736E1915059
S113251020403040E1F700C0000080E490E0909358
S11325203E0280933D020E94B400A8958FEF9FE77E
S113253026E1815090402040E1F700C00000109255
S11325403E0210923D020E94B4002B9AA8953FEFE0
S11325508FE796E1315080409040E1F700C00000E1
S1132560A8950E943902E5EBF5E0618180810E9423
S1132570DC0B8091B3058093050385E08093810093
S11325808FEF809385008FE680938400EFE6F0E080
S113259080818160808308958091B70580FF08C0A1
S11325A026E686EE90E0215080409040E1F70BC093
S11325B00895F8942FEF8FE796E1215080409040E2
S11325C0E1F700C000000E94031278948AE080932F
S11325D00401109204031AE0C7E0D2E0A8950E9417
S11325E05E0D813021F4109304030E943611809112
S11325F00403882311F02B9801C02B9A80910401C5
S11326008111ECCF109304010E94A7040E94C3001F
S11326100E9431050E9427060E94CC12888199816C
S11326208B3F2FEF920720F4019699838883D6CFAE
S113263019821882D3CF5058BB27AA270ED048C17D
S113264039D130F03ED120F031F49F3F11F41EF423
S11326502EC10EF4E095E7FB24C1E92F4AD180F3A3
S1132660BA17620773078407950718F071F49EF58B
S113267062C10EF4E0950B2EBA2FA02D0B01B90107
S113268090010C01CA01A0011124FF27591B99F0E4
S1132690593F50F4503E68F11A16F040A22F232FF0
S11326A0342F4427585FF3CF469537952795A79540
S11326B0F0405395C9F77EF41F16BA0B620B730BE7
S11326C0840BBAF09150A1F0FF0FBB1F661F771F58
S11326D0881FC2F70EC0BA0F621F731F841F48F40D
S11326E0879577956795B795F7959E3F08F0B3CF93
S11326F09395880F08F09927EE0F9795879508957D
S11327000CD0E6C0DED040F0D5D030F021F45F3FED
S113271019F0C7C0511110C1CAC0EBD098F3992366
S1132720C9F35523B1F3951B550BBB27AA27621791
S11327307307840738F09F5F5F4F220F331F441FD6
S1132740AA1FA9F333D00E2E3AF0E0E830D091500E
S11327505040E695001CCAF729D0FE2F27D0660FFB
S1132760771F881FBB1F261737074807AB07B0E83A
S113277009F0BB0B802DBF01FF2793585F4F2AF050
S11327809E3F510568F08DC0D7C05F3FECF3983E83
S1132790DCF3869577956795B795F7959F5FC9F7AD
S11327A0880F911D9695879597F90895E1E0660F36
S11327B0771F881FBB1F621773078407BA0720F0AF
S11327C0621B730B840BBA0BEE1F88F7E095089518
S11327D098D088F09F5790F0B92F9927B751A0F05F
S11327E0D1F0660F771F881F991F1AF0BA95C9F7A1
S11327F012C0B13081F09FD0B1E008959CC0672F22
S1132800782F8827B85F39F0B93FCCF38695779550
S11328106795B395D9F73EF4909580957095619539
S11328207F4F8F4F9F4F0895E89409C097FB3EF464
S113283090958095709561957F4F8F4F9F4F992309
S1132840A9F0F92F96E9BB279395F6958795779587
S11328506795B795F111F8CFFAF4BB0F11F460FF47
S11328601BC06F5F7F4F8F4F9F4F16C0882311F09F
S113287096E911C0772321F09EE8872F762F05C0B3
S1132880662371F096E8862F70E060E02AF09A954E
S1132890660F771F881FDAF7880F9695879597F943
S11328A0089597F99F6780E870E060E008959FEFCE
S11328B080EC089500240A941616170618060906D3
S11328C0089500240A9412161306140605060895A2
S11328D0092E0394000C11F4882352F0BB0F40F42A
S11328E0BF2B11F460FF04C06F5F7F4F8F4F9F4F6A
S11328F0089557FD9058440F551F59F05F3F71F0EC
S11329004795880F97FB991F61F09F3F79F0879552
S11329100895121613061406551FF2CF4695F1DFDB
S113292008C0161617061806991FF1CF869571056B
S1132930610508940895E894BB2766277727CB019F
S113294097F9089566D008F48FEF08950BD0C0CF9F
S1132950B1DF28F0B6DF18F0952309F0A2CFA7CF96
S11329601124EACFC6DFA0F3959FD1F3950F50E071
S1132970551F629FF001729FBB27F00DB11D639F2D
S1132980AA27F00DB11DAA1F649F6627B00DA11DD3
S1132990661F829F2227B00DA11D621F739FB00D79
S11329A0A11D621F839FA00D611D221F749F3327E9
S11329B0A00D611D231F849F600D211D822F762F82
S11329C06A2F11249F5750408AF0E1F088234AF07F
S11329D0EE0FFF1FBB1F661F771F881F91505040CB
S11329E0A9F79E3F510570F05CCFA6CF5F3FECF393
S11329F0983EDCF3869577956795B795F795E795B7
S1132A009F5FC1F7FE2B880F911D9695879597F9C7
S1132A100895990F0008550FAA0BE0E8FEEF16166B
S1132A201706E807F907C0F012161306E407F507BE
S1132A3098F0621B730B840B950B39F40A2661F032
S1132A40232B242B252B21F408950A2609F4A140D5
S1132A50A6958FEF811D811D0895EE0FFF1F059030
S1132A60F491E02D0994DC01CB01FC01F999FECF2E
S1132A7006C0F2BDE1BDF89A319600B40D92415002
S1132A805040B8F70895F999FECF92BD81BDF89AE8
S1132A90992780B50895A8E1B0E042E050E00C9495
S1132AA03515DC01CB0103C02D910E945C1541500A
S1132AB05040D0F70895262FF999FECF1FBA92BD42
S1132AC081BD20BD0FB6F894FA9AF99A0FBE01960B
S1132AD008950E945B15272F0C945C15F894FFCF82
S9030000FC
